{
  "transactions": [
    {
      "hash": "0xea8300d863625fe74b54d8201fd944bbaedda3043c998abe98dedbb0930f5771",
      "transactionType": "CALL",
      "contractName": null,
      "contractAddress": "0x9d60e70d6d164708397e7f0aba139589c7447255",
      "function": "approve(address,uint256)",
      "arguments": [
        "0x1358B157BA6edDcaaeeD860B1fCAab052A189C6E",
        "115792089237316195423570985008687907853269984665640564039457584007913129639935"
      ],
      "transaction": {
        "from": "0x6e0ee480c539f7b78c8c3ee82ddee4d48b26b1fd",
        "to": "0x9d60e70d6d164708397e7f0aba139589c7447255",
        "gas": "0xf999",
        "value": "0x0",
        "input": "0x095ea7b30000000000000000000000001358b157ba6eddcaaeed860b1fcaab052a189c6effffffffffffffffffffffffffffffffffffffffffffffffffffffffffffffff",
        "nonce": "0x16c",
        "chainId": "0xaa36a7"
      },
      "additionalContracts": [],
      "isFixedGasLimit": false
    },
    {
      "hash": "0x643c525fdbbeb27dc8b52b19886f81aed1489c1ccd80e0440dcabafbbbea357f",
      "transactionType": "CALL",
      "contractName": "ZybraGroupV2",
      "contractAddress": "0x1358b157ba6eddcaaeed860b1fcaab052a189c6e",
      "function": "startGroup()",
      "arguments": [],
      "transaction": {
        "from": "0x6e0ee480c539f7b78c8c3ee82ddee4d48b26b1fd",
        "to": "0x1358b157ba6eddcaaeed860b1fcaab052a189c6e",
        "gas": "0x182d0",
        "value": "0x0",
        "input": "0xe844ea6a",
        "nonce": "0x16d",
        "chainId": "0xaa36a7"
      },
      "additionalContracts": [],
      "isFixedGasLimit": false
    },
    {
      "hash": "0x9373167103a60bebaa6bcd742f3c6f123a07c38b9f3139c822f58133ea218d88",
      "transactionType": "CALL",
      "contractName": "ZybraGroupV2",
      "contractAddress": "0x1358b157ba6eddcaaeed860b1fcaab052a189c6e",
      "function": "contribute(address)",
      "arguments": [
        "0x6e0Ee480C539f7B78c8c3EE82DDEe4D48B26b1fd"
      ],
      "transaction": {
        "from": "0x6e0ee480c539f7b78c8c3ee82ddee4d48b26b1fd",
        "to": "0x1358b157ba6eddcaaeed860b1fcaab052a189c6e",
        "gas": "0x57fd2",
        "value": "0x0",
        "input": "0x73e888fd0000000000000000000000006e0ee480c539f7b78c8c3ee82ddee4d48b26b1fd",
        "nonce": "0x16e",
        "chainId": "0xaa36a7"
      },
      "additionalContracts": [],
      "isFixedGasLimit": false
    },
    {
      "hash": "0x3d68a6f22c1be7f89e77b66d8c8ed622841c953f8325a7732b1bd6efaaae9070",
      "transactionType": "CALL",
      "contractName": "MockYieldVault",
      "contractAddress": "0xf702e2801ac13120873841c8ce3001d44c814faf",
      "function": "generateYield()",
      "arguments": [],
      "transaction": {
        "from": "0x6e0ee480c539f7b78c8c3ee82ddee4d48b26b1fd",
        "to": "0xf702e2801ac13120873841c8ce3001d44c814faf",
        "gas": "0x1276f",
        "value": "0x0",
        "input": "0xf7c65cd2",
        "nonce": "0x16f",
        "chainId": "0xaa36a7"
      },
      "additionalContracts": [],
      "isFixedGasLimit": false
    },
    {
      "hash": "0xc289ed1d7a81f8c1714fcd5f3e292bfbe8517068dd5c5e69306136b04ff8a553",
      "transactionType": "CALL",
      "contractName": "ZybraGroupV2",
      "contractAddress": "0x1358b157ba6eddcaaeed860b1fcaab052a189c6e",
      "function": "accrueYield()",
      "arguments": [],
      "transaction": {
        "from": "0x6e0ee480c539f7b78c8c3ee82ddee4d48b26b1fd",
        "to": "0x1358b157ba6eddcaaeed860b1fcaab052a189c6e",
        "gas": "0x28667",
        "value": "0x0",
        "input": "0x059d9c75",
        "nonce": "0x170",
        "chainId": "0xaa36a7"
      },
      "additionalContracts": [],
      "isFixedGasLimit": false
    }
  ],
  "receipts": [
    {
      "status": "0x1",
      "cumulativeGasUsed": "0x15943aa",
      "logs": [
        {
          "address": "0x9d60e70d6d164708397e7f0aba139589c7447255",
          "topics": [
            "0x8c5be1e5ebec7d5bd14f71427d1e84f3dd0314c0f7b2291e5b200ac8c7c3b925",
            "0x0000000000000000000000006e0ee480c539f7b78c8c3ee82ddee4d48b26b1fd",
            "0x0000000000000000000000001358b157ba6eddcaaeed860b1fcaab052a189c6e"
          ],
          "data": "0xffffffffffffffffffffffffffffffffffffffffffffffffffffffffffffffff",
          "blockHash": "0xee3a4a8aca0cc772f9ee1903bbbcf4b4d5196276fb63621a8d584ea2d9473c62",
          "blockNumber": "0x99e94e",
          "blockTimestamp": "0x696fcf24",
          "transactionHash": "0xea8300d863625fe74b54d8201fd944bbaedda3043c998abe98dedbb0930f5771",
          "transactionIndex": "0x18",
          "logIndex": "0x304",
          "removed": false
        }
      ],
      "logsBloom": "0x00000000000000040000000000002000000000000000000000000000000000000000000000000000000000000040000000000000000000000000000000200000800000000000000000000000000000000000000000004000000000000000000000000000000000000000000000000000000000000000000000000000000000000000000000000010000000000000000000000000000000000000000000000000020000000000000000000000000000000000000000000000000000000000000000000000000000000000000000000000000000000000000000000000000000010010000000000000000000000000100000080000000000000000000000000000",
      "type": "0x2",
      "transactionHash": "0xea8300d863625fe74b54d8201fd944bbaedda3043c998abe98dedbb0930f5771",
      "transactionIndex": "0x18",
      "blockHash": "0xee3a4a8aca0cc772f9ee1903bbbcf4b4d5196276fb63621a8d584ea2d9473c62",
      "blockNumber": "0x99e94e",
      "gasUsed": "0xb4b5",
      "effectiveGasPrice": "0x122c69999",
      "from": "0x6e0ee480c539f7b78c8c3ee82ddee4d48b26b1fd",
      "to": "0x9d60e70d6d164708397e7f0aba139589c7447255",
      "contractAddress": null
    },
    {
      "status": "0x1",
      "cumulativeGasUsed": "0x15a5bb7",
      "logs": [
        {
          "address": "0x1358b157ba6eddcaaeed860b1fcaab052a189c6e",
          "topics": [
            "0x4fdfd688eb849f0e54ee4e835f941bf524c1897af4b68df2ee8c63070415c0c3"
          ],
          "data": "0x00000000000000000000000000000000000000000000000000000000696fcf24",
          "blockHash": "0xee3a4a8aca0cc772f9ee1903bbbcf4b4d5196276fb63621a8d584ea2d9473c62",
          "blockNumber": "0x99e94e",
          "blockTimestamp": "0x696fcf24",
          "transactionHash": "0x643c525fdbbeb27dc8b52b19886f81aed1489c1ccd80e0440dcabafbbbea357f",
          "transactionIndex": "0x19",
          "logIndex": "0x305",
          "removed": false
        }
      ],
      "logsBloom": "0x00000000000000000000000000000000100000000000000000000000000000000000000000004000000000000000000000000000000000040000000000000000000000000000000000000000000000000000000000000000000000000000000000000000000000000000000000000000000000000000000000000000000000000000000000000000000000000000000000000000000000000000000000000000400014000000000000000000000000000000000000000000000000000000000000000000000000000000000000000000000000000000000000000000000000000000000000000000000000000000000000000000000000000000000000000000",
      "type": "0x2",
      "transactionHash": "0x643c525fdbbeb27dc8b52b19886f81aed1489c1ccd80e0440dcabafbbbea357f",
      "transactionIndex": "0x19",
      "blockHash": "0xee3a4a8aca0cc772f9ee1903bbbcf4b4d5196276fb63621a8d584ea2d9473c62",
      "blockNumber": "0x99e94e",
      "gasUsed": "0x1180d",
      "effectiveGasPrice": "0x122c69999",
      "from": "0x6e0ee480c539f7b78c8c3ee82ddee4d48b26b1fd",
      "to": "0x1358b157ba6eddcaaeed860b1fcaab052a189c6e",
      "contractAddress": null
    },
    {
      "status": "0x1",
      "cumulativeGasUsed": "0x15e56f5",
      "logs": [
        {
          "address": "0x9d60e70d6d164708397e7f0aba139589c7447255",
          "topics": [
            "0xddf252ad1be2c89b69c2b068fc378daa952ba7f163c4a11628f55a4df523b3ef",
            "0x0000000000000000000000006e0ee480c539f7b78c8c3ee82ddee4d48b26b1fd",
            "0x0000000000000000000000001358b157ba6eddcaaeed860b1fcaab052a189c6e"
          ],
          "data": "0x0000000000000000000000000000000000000000000000000000000005f5e100",
          "blockHash": "0xee3a4a8aca0cc772f9ee1903bbbcf4b4d5196276fb63621a8d584ea2d9473c62",
          "blockNumber": "0x99e94e",
          "blockTimestamp": "0x696fcf24",
          "transactionHash": "0x9373167103a60bebaa6bcd742f3c6f123a07c38b9f3139c822f58133ea218d88",
          "transactionIndex": "0x1a",
          "logIndex": "0x306",
          "removed": false
        },
        {
          "address": "0x9d60e70d6d164708397e7f0aba139589c7447255",
          "topics": [
            "0x8c5be1e5ebec7d5bd14f71427d1e84f3dd0314c0f7b2291e5b200ac8c7c3b925",
            "0x0000000000000000000000001358b157ba6eddcaaeed860b1fcaab052a189c6e",
            "0x000000000000000000000000f702e2801ac13120873841c8ce3001d44c814faf"
          ],
          "data": "0x0000000000000000000000000000000000000000000000000000000005f5e100",
          "blockHash": "0xee3a4a8aca0cc772f9ee1903bbbcf4b4d5196276fb63621a8d584ea2d9473c62",
          "blockNumber": "0x99e94e",
          "blockTimestamp": "0x696fcf24",
          "transactionHash": "0x9373167103a60bebaa6bcd742f3c6f123a07c38b9f3139c822f58133ea218d88",
          "transactionIndex": "0x1a",
          "logIndex": "0x307",
          "removed": false
        },
        {
          "address": "0x9d60e70d6d164708397e7f0aba139589c7447255",
          "topics": [
            "0xddf252ad1be2c89b69c2b068fc378daa952ba7f163c4a11628f55a4df523b3ef",
            "0x0000000000000000000000001358b157ba6eddcaaeed860b1fcaab052a189c6e",
            "0x000000000000000000000000f702e2801ac13120873841c8ce3001d44c814faf"
          ],
          "data": "0x0000000000000000000000000000000000000000000000000000000005f5e100",
          "blockHash": "0xee3a4a8aca0cc772f9ee1903bbbcf4b4d5196276fb63621a8d584ea2d9473c62",
          "blockNumber": "0x99e94e",
          "blockTimestamp": "0x696fcf24",
          "transactionHash": "0x9373167103a60bebaa6bcd742f3c6f123a07c38b9f3139c822f58133ea218d88",
          "transactionIndex": "0x1a",
          "logIndex": "0x308",
          "removed": false
        },
        {
          "address": "0xf702e2801ac13120873841c8ce3001d44c814faf",
          "topics": [
            "0xddf252ad1be2c89b69c2b068fc378daa952ba7f163c4a11628f55a4df523b3ef",
            "0x0000000000000000000000000000000000000000000000000000000000000000",
            "0x0000000000000000000000001358b157ba6eddcaaeed860b1fcaab052a189c6e"
          ],
          "data": "0x0000000000000000000000000000000000000000000000000000000005f5e100",
          "blockHash": "0xee3a4a8aca0cc772f9ee1903bbbcf4b4d5196276fb63621a8d584ea2d9473c62",
          "blockNumber": "0x99e94e",
          "blockTimestamp": "0x696fcf24",
          "transactionHash": "0x9373167103a60bebaa6bcd742f3c6f123a07c38b9f3139c822f58133ea218d88",
          "transactionIndex": "0x1a",
          "logIndex": "0x309",
          "removed": false
        },
        {
          "address": "0xf702e2801ac13120873841c8ce3001d44c814faf",
          "topics": [
            "0xdcbc1c05240f31ff3ad067ef1ee35ce4997762752e3a095284754544f4c709d7",
            "0x0000000000000000000000001358b157ba6eddcaaeed860b1fcaab052a189c6e",
            "0x0000000000000000000000001358b157ba6eddcaaeed860b1fcaab052a189c6e"
          ],
          "data": "0x0000000000000000000000000000000000000000000000000000000005f5e1000000000000000000000000000000000000000000000000000000000005f5e100",
          "blockHash": "0xee3a4a8aca0cc772f9ee1903bbbcf4b4d5196276fb63621a8d584ea2d9473c62",
          "blockNumber": "0x99e94e",
          "blockTimestamp": "0x696fcf24",
          "transactionHash": "0x9373167103a60bebaa6bcd742f3c6f123a07c38b9f3139c822f58133ea218d88",
          "transactionIndex": "0x1a",
          "logIndex": "0x30a",
          "removed": false
        },
        {
          "address": "0x1358b157ba6eddcaaeed860b1fcaab052a189c6e",
          "topics": [
            "0xb2623081601722547aae8781994e01a1974d95b0ad9ce6a0cfbe17487556257f",
            "0x0000000000000000000000006e0ee480c539f7b78c8c3ee82ddee4d48b26b1fd"
          ],
          "data": "0x0000000000000000000000000000000000000000000000000000000005f5e10000000000000000000000000000000000000000000000000000000000000000010000000000000000000000000000000000000000000000000000000005f5e100",
          "blockHash": "0xee3a4a8aca0cc772f9ee1903bbbcf4b4d5196276fb63621a8d584ea2d9473c62",
          "blockNumber": "0x99e94e",
          "blockTimestamp": "0x696fcf24",
          "transactionHash": "0x9373167103a60bebaa6bcd742f3c6f123a07c38b9f3139c822f58133ea218d88",
          "transactionIndex": "0x1a",
          "logIndex": "0x30b",
          "removed": false
        }
      ],
      "logsBloom": "0x00000000000000040000020000002000000000000000000000000000000000000000000000004000000000000040000000000000000000040000000000200000800000400000000000000008000000000000000000004000200000000000000000000000020000000000000000000800000000000004000000000010000000000000000000000010000000000000000004000000000000000080000000000000020010000000000000000000000000000000000000000000000000004004000000000002000000000000000000000000000000000008000200000000000020010010100000000000000000000000100000080000000000000000000000000020",
      "type": "0x2",
      "transactionHash": "0x9373167103a60bebaa6bcd742f3c6f123a07c38b9f3139c822f58133ea218d88",
      "transactionIndex": "0x1a",
      "blockHash": "0xee3a4a8aca0cc772f9ee1903bbbcf4b4d5196276fb63621a8d584ea2d9473c62",
      "blockNumber": "0x99e94e",
      "gasUsed": "0x3fb3e",
      "effectiveGasPrice": "0x122c69999",
      "from": "0x6e0ee480c539f7b78c8c3ee82ddee4d48b26b1fd",
      "to": "0x1358b157ba6eddcaaeed860b1fcaab052a189c6e",
      "contractAddress": null
    },
    {
      "status": "0x1",
      "cumulativeGasUsed": "0x15f2cd9",
      "logs": [
        {
          "address": "0xf702e2801ac13120873841c8ce3001d44c814faf",
          "topics": [
            "0x30c16c13f64000649ac450d7013dfc2fc1f6ddce4b92b5a06262c72886020316"
          ],
          "data": "0x00000000000000000000000000000000000000000000000000000000004c4b4000000000000000000000000000000000000000000000000000000000004c4b40",
          "blockHash": "0xee3a4a8aca0cc772f9ee1903bbbcf4b4d5196276fb63621a8d584ea2d9473c62",
          "blockNumber": "0x99e94e",
          "blockTimestamp": "0x696fcf24",
          "transactionHash": "0x3d68a6f22c1be7f89e77b66d8c8ed622841c953f8325a7732b1bd6efaaae9070",
          "transactionIndex": "0x1b",
          "logIndex": "0x30c",
          "removed": false
        }
      ],
      "logsBloom": "0x00000000000000000000000000000000000000000000000000000000000000000000000000000000000000000000000000000000000000000000000000000000000000000000000000000000000000000000000000000000000000000000000000000000000000000000000000000000000000000000000000000000000000000000000000000000000000000000000000000000000000000080000000000000000000000000000000000000000000000001000000000000000000004000000000000000000040000000000000000000000000000000000200000000000000000000000000000000000000000000000004000000000000000000000000000000",
      "type": "0x2",
      "transactionHash": "0x3d68a6f22c1be7f89e77b66d8c8ed622841c953f8325a7732b1bd6efaaae9070",
      "transactionIndex": "0x1b",
      "blockHash": "0xee3a4a8aca0cc772f9ee1903bbbcf4b4d5196276fb63621a8d584ea2d9473c62",
      "blockNumber": "0x99e94e",
      "gasUsed": "0xd5e4",
      "effectiveGasPrice": "0x122c69999",
      "from": "0x6e0ee480c539f7b78c8c3ee82ddee4d48b26b1fd",
      "to": "0xf702e2801ac13120873841c8ce3001d44c814faf",
      "contractAddress": null
    },
    {
      "status": "0x1",
      "cumulativeGasUsed": "0x16100d6",
      "logs": [
        {
          "address": "0x1358b157ba6eddcaaeed860b1fcaab052a189c6e",
          "topics": [
            "0xf571bb88b0ec5dc25398fc62c69d5970d50ea313a0a6596b0ca7f0197d37383f"
          ],
          "data": "0x000000000000000000000000000000000000000000000000000000000000000100000000000000000000000000000000000000000000000000000000004c4b40000000000000000000000000000000000000000000000000000000047868c000",
          "blockHash": "0xee3a4a8aca0cc772f9ee1903bbbcf4b4d5196276fb63621a8d584ea2d9473c62",
          "blockNumber": "0x99e94e",
          "blockTimestamp": "0x696fcf24",
          "transactionHash": "0xc289ed1d7a81f8c1714fcd5f3e292bfbe8517068dd5c5e69306136b04ff8a553",
          "transactionIndex": "0x1c",
          "logIndex": "0x30d",
          "removed": false
        }
      ],
      "logsBloom": "0x00000000000000000000000000000000000000000000000000000000000000000000000000004000000000000000000000000000000000040000000000000000000000000000000000000000000000000000000000000000000000020000000000000000000000000000000000000000000000000000000000000000000000000000000000000000000000000000000000000000000000000000000000000000000010000000000000000000000000000000000800000000000000000000000000000002000000000000000000000000000000000000000000000000000000000000000000000000000000000000000000000000000000000000000000000000",
      "type": "0x2",
      "transactionHash": "0xc289ed1d7a81f8c1714fcd5f3e292bfbe8517068dd5c5e69306136b04ff8a553",
      "transactionIndex": "0x1c",
      "blockHash": "0xee3a4a8aca0cc772f9ee1903bbbcf4b4d5196276fb63621a8d584ea2d9473c62",
      "blockNumber": "0x99e94e",
      "gasUsed": "0x1d3fd",
      "effectiveGasPrice": "0x122c69999",
      "from": "0x6e0ee480c539f7b78c8c3ee82ddee4d48b26b1fd",
      "to": "0x1358b157ba6eddcaaeed860b1fcaab052a189c6e",
      "contractAddress": null
    }
  ],
  "libraries": [],
  "pending": [],
  "returns": {},
  "timestamp": 1768935213181,
  "chain": 11155111,
  "commit": "8d1aa3c"
}